{
  "contractName": "IpManagement",
  "abi": [
    {
      "anonymous": false,
      "inputs": [
        {
          "indexed": true,
          "internalType": "uint256",
          "name": "ipId",
          "type": "uint256"
        },
        {
          "indexed": true,
          "internalType": "address",
          "name": "owner",
          "type": "address"
        },
        {
          "indexed": false,
          "internalType": "string",
          "name": "title",
          "type": "string"
        }
      ],
      "name": "IPRegistered",
      "type": "event"
    },
    {
      "anonymous": false,
      "inputs": [
        {
          "indexed": true,
          "internalType": "uint256",
          "name": "ipId",
          "type": "uint256"
        },
        {
          "indexed": true,
          "internalType": "address",
          "name": "from",
          "type": "address"
        },
        {
          "indexed": true,
          "internalType": "address",
          "name": "to",
          "type": "address"
        }
      ],
      "name": "IPTransferred",
      "type": "event"
    },
    {
      "inputs": [],
      "name": "ipCounter",
      "outputs": [
        {
          "internalType": "uint256",
          "name": "",
          "type": "uint256"
        }
      ],
      "stateMutability": "view",
      "type": "function",
      "constant": true
    },
    {
      "inputs": [
        {
          "internalType": "uint256",
          "name": "",
          "type": "uint256"
        }
      ],
      "name": "ipRecords",
      "outputs": [
        {
          "internalType": "uint256",
          "name": "id",
          "type": "uint256"
        },
        {
          "internalType": "address",
          "name": "creator",
          "type": "address"
        },
        {
          "internalType": "address",
          "name": "owner",
          "type": "address"
        },
        {
          "internalType": "string",
          "name": "title",
          "type": "string"
        },
        {
          "internalType": "string",
          "name": "classification",
          "type": "string"
        },
        {
          "internalType": "string",
          "name": "description",
          "type": "string"
        },
        {
          "internalType": "string",
          "name": "documentUrl",
          "type": "string"
        },
        {
          "internalType": "string",
          "name": "status",
          "type": "string"
        },
        {
          "internalType": "bool",
          "name": "visibility",
          "type": "bool"
        }
      ],
      "stateMutability": "view",
      "type": "function",
      "constant": true
    },
    {
      "inputs": [
        {
          "internalType": "address",
          "name": "_owner",
          "type": "address"
        },
        {
          "internalType": "string",
          "name": "_title",
          "type": "string"
        },
        {
          "internalType": "string",
          "name": "_classification",
          "type": "string"
        },
        {
          "internalType": "string",
          "name": "_description",
          "type": "string"
        },
        {
          "internalType": "string",
          "name": "_documentUrl",
          "type": "string"
        },
        {
          "internalType": "string",
          "name": "_status",
          "type": "string"
        },
        {
          "internalType": "string[]",
          "name": "_keywords",
          "type": "string[]"
        }
      ],
      "name": "registerIP",
      "outputs": [
        {
          "internalType": "uint256",
          "name": "",
          "type": "uint256"
        }
      ],
      "stateMutability": "nonpayable",
      "type": "function"
    },
    {
      "inputs": [
        {
          "internalType": "uint256",
          "name": "ipId",
          "type": "uint256"
        },
        {
          "internalType": "address payable",
          "name": "to",
          "type": "address"
        }
      ],
      "name": "transferIP",
      "outputs": [],
      "stateMutability": "payable",
      "type": "function",
      "payable": true
    },
    {
      "inputs": [
        {
          "internalType": "uint256",
          "name": "ipId",
          "type": "uint256"
        }
      ],
      "name": "getIP",
      "outputs": [
        {
          "internalType": "string",
          "name": "",
          "type": "string"
        },
        {
          "internalType": "address",
          "name": "",
          "type": "address"
        },
        {
          "internalType": "address",
          "name": "",
          "type": "address"
        },
        {
          "internalType": "string",
          "name": "",
          "type": "string"
        },
        {
          "internalType": "string[]",
          "name": "",
          "type": "string[]"
        },
        {
          "internalType": "string",
          "name": "",
          "type": "string"
        },
        {
          "internalType": "string",
          "name": "",
          "type": "string"
        },
        {
          "internalType": "string",
          "name": "",
          "type": "string"
        },
        {
          "internalType": "bool",
          "name": "",
          "type": "bool"
        }
      ],
      "stateMutability": "view",
      "type": "function",
      "constant": true
    },
    {
      "inputs": [
        {
          "internalType": "uint256",
          "name": "ipId",
          "type": "uint256"
        }
      ],
      "name": "getOwnership",
      "outputs": [
        {
          "internalType": "address",
          "name": "",
          "type": "address"
        }
      ],
      "stateMutability": "view",
      "type": "function",
      "constant": true
    }
  ],
  "bytecode": "0x6080604052600060015534801561001557600080fd5b50611e3f806100256000396000f3fe6080604052600436106100555760003560e01c806302c59bc61461005a5780632d9325981461009f578063436aa76c146100bb57806352cff87914610100578063704044dc1461012b578063e72c292914610168575b600080fd5b34801561006657600080fd5b50610081600480360381019061007c9190611403565b6101a5565b60405161009699989796959493929190611534565b60405180910390f35b6100b960048036038101906100b49190611622565b6104e8565b005b3480156100c757600080fd5b506100e260048036038101906100dd9190611403565b6106bd565b6040516100f79998979695949392919061176e565b60405180910390f35b34801561010c57600080fd5b50610115610bc0565b6040516101229190611825565b60405180910390f35b34801561013757600080fd5b50610152600480360381019061014d9190611403565b610bc6565b60405161015f9190611840565b60405180910390f35b34801561017457600080fd5b5061018f600480360381019061018a9190611aa2565b61107a565b60405161019c9190611825565b60405180910390f35b60006020528060005260406000206000915090508060000154908060010160009054906101000a900473ffffffffffffffffffffffffffffffffffffffff16908060020160009054906101000a900473ffffffffffffffffffffffffffffffffffffffff169080600301805461021a90611c1b565b80601f016020809104026020016040519081016040528092919081815260200182805461024690611c1b565b80156102935780601f1061026857610100808354040283529160200191610293565b820191906000526020600020905b81548152906001019060200180831161027657829003601f168201915b5050505050908060050180546102a890611c1b565b80601f01602080910402602001604051908101604052809291908181526020018280546102d490611c1b565b80156103215780601f106102f657610100808354040283529160200191610321565b820191906000526020600020905b81548152906001019060200180831161030457829003601f168201915b50505050509080600601805461033690611c1b565b80601f016020809104026020016040519081016040528092919081815260200182805461036290611c1b565b80156103af5780601f10610384576101008083540402835291602001916103af565b820191906000526020600020905b81548152906001019060200180831161039257829003601f168201915b5050505050908060070180546103c490611c1b565b80601f01602080910402602001604051908101604052809291908181526020018280546103f090611c1b565b801561043d5780601f106104125761010080835404028352916020019161043d565b820191906000526020600020905b81548152906001019060200180831161042057829003601f168201915b50505050509080600801805461045290611c1b565b80601f016020809104026020016040519081016040528092919081815260200182805461047e90611c1b565b80156104cb5780601f106104a0576101008083540402835291602001916104cb565b820191906000526020600020905b8154815290600101906020018083116104ae57829003601f168201915b5050505050908060090160009054906101000a900460ff16905089565b600080600084815260200190815260200160002090503373ffffffffffffffffffffffffffffffffffffffff168160020160009054906101000a900473ffffffffffffffffffffffffffffffffffffffff1673ffffffffffffffffffffffffffffffffffffffff1614610590576040517f08c379a000000000000000000000000000000000000000000000000000000000815260040161058790611cbe565b60405180910390fd5b600034116105d3576040517f08c379a00000000000000000000000000000000000000000000000000000000081526004016105ca90611d50565b60405180910390fd5b818160020160006101000a81548173ffffffffffffffffffffffffffffffffffffffff021916908373ffffffffffffffffffffffffffffffffffffffff1602179055508173ffffffffffffffffffffffffffffffffffffffff166108fc349081150290604051600060405180830381858888f1935050505015801561065c573d6000803e3d6000fd5b508173ffffffffffffffffffffffffffffffffffffffff163373ffffffffffffffffffffffffffffffffffffffff16847f1757856899d0b1fbb2e309cb05cda166887b13df401307904c3042b4b759dc3960405160405180910390a4505050565b606060008060608060608060606000806000808c815260200190815260200160002060405180610140016040529081600082015481526020016001820160009054906101000a900473ffffffffffffffffffffffffffffffffffffffff1673ffffffffffffffffffffffffffffffffffffffff1673ffffffffffffffffffffffffffffffffffffffff1681526020016002820160009054906101000a900473ffffffffffffffffffffffffffffffffffffffff1673ffffffffffffffffffffffffffffffffffffffff1673ffffffffffffffffffffffffffffffffffffffff1681526020016003820180546107b190611c1b565b80601f01602080910402602001604051908101604052809291908181526020018280546107dd90611c1b565b801561082a5780601f106107ff5761010080835404028352916020019161082a565b820191906000526020600020905b81548152906001019060200180831161080d57829003601f168201915b5050505050815260200160048201805480602002602001604051908101604052809291908181526020016000905b8282101561090457838290600052602060002001805461087790611c1b565b80601f01602080910402602001604051908101604052809291908181526020018280546108a390611c1b565b80156108f05780601f106108c5576101008083540402835291602001916108f0565b820191906000526020600020905b8154815290600101906020018083116108d357829003601f168201915b505050505081526020019060010190610858565b50505050815260200160058201805461091c90611c1b565b80601f016020809104026020016040519081016040528092919081815260200182805461094890611c1b565b80156109955780601f1061096a57610100808354040283529160200191610995565b820191906000526020600020905b81548152906001019060200180831161097857829003601f168201915b505050505081526020016006820180546109ae90611c1b565b80601f01602080910402602001604051908101604052809291908181526020018280546109da90611c1b565b8015610a275780601f106109fc57610100808354040283529160200191610a27565b820191906000526020600020905b815481529060010190602001808311610a0a57829003601f168201915b50505050508152602001600782018054610a4090611c1b565b80601f0160208091040260200160405190810160405280929190818152602001828054610a6c90611c1b565b8015610ab95780601f10610a8e57610100808354040283529160200191610ab9565b820191906000526020600020905b815481529060010190602001808311610a9c57829003601f168201915b50505050508152602001600882018054610ad290611c1b565b80601f0160208091040260200160405190810160405280929190818152602001828054610afe90611c1b565b8015610b4b5780601f10610b2057610100808354040283529160200191610b4b565b820191906000526020600020905b815481529060010190602001808311610b2e57829003601f168201915b505050505081526020016009820160009054906101000a900460ff16151515158152505090508060600151816020015182604001518360a0015184608001518560c001518660e00151876101000151886101200151995099509950995099509950995099509950509193959799909294969850565b60015481565b60008060008084815260200190815260200160002060405180610140016040529081600082015481526020016001820160009054906101000a900473ffffffffffffffffffffffffffffffffffffffff1673ffffffffffffffffffffffffffffffffffffffff1673ffffffffffffffffffffffffffffffffffffffff1681526020016002820160009054906101000a900473ffffffffffffffffffffffffffffffffffffffff1673ffffffffffffffffffffffffffffffffffffffff1673ffffffffffffffffffffffffffffffffffffffff168152602001600382018054610cad90611c1b565b80601f0160208091040260200160405190810160405280929190818152602001828054610cd990611c1b565b8015610d265780601f10610cfb57610100808354040283529160200191610d26565b820191906000526020600020905b815481529060010190602001808311610d0957829003601f168201915b5050505050815260200160048201805480602002602001604051908101604052809291908181526020016000905b82821015610e00578382906000526020600020018054610d7390611c1b565b80601f0160208091040260200160405190810160405280929190818152602001828054610d9f90611c1b565b8015610dec5780601f10610dc157610100808354040283529160200191610dec565b820191906000526020600020905b815481529060010190602001808311610dcf57829003601f168201915b505050505081526020019060010190610d54565b505050508152602001600582018054610e1890611c1b565b80601f0160208091040260200160405190810160405280929190818152602001828054610e4490611c1b565b8015610e915780601f10610e6657610100808354040283529160200191610e91565b820191906000526020600020905b815481529060010190602001808311610e7457829003601f168201915b50505050508152602001600682018054610eaa90611c1b565b80601f0160208091040260200160405190810160405280929190818152602001828054610ed690611c1b565b8015610f235780601f10610ef857610100808354040283529160200191610f23565b820191906000526020600020905b815481529060010190602001808311610f0657829003601f168201915b50505050508152602001600782018054610f3c90611c1b565b80601f0160208091040260200160405190810160405280929190818152602001828054610f6890611c1b565b8015610fb55780601f10610f8a57610100808354040283529160200191610fb5565b820191906000526020600020905b815481529060010190602001808311610f9857829003601f168201915b50505050508152602001600882018054610fce90611c1b565b80601f0160208091040260200160405190810160405280929190818152602001828054610ffa90611c1b565b80156110475780601f1061101c57610100808354040283529160200191611047565b820191906000526020600020905b81548152906001019060200180831161102a57829003601f168201915b505050505081526020016009820160009054906101000a900460ff16151515158152505090508060400151915050919050565b60006001600081548092919061108f90611d9f565b91905055506000806000600154815260200190815260200160002090506001548160000181905550338160010160006101000a81548173ffffffffffffffffffffffffffffffffffffffff021916908373ffffffffffffffffffffffffffffffffffffffff160217905550888160020160006101000a81548173ffffffffffffffffffffffffffffffffffffffff021916908373ffffffffffffffffffffffffffffffffffffffff16021790555087816003019080519060200190611155929190611252565b508681600501908051906020019061116e929190611252565b5085816006019080519060200190611187929190611252565b50848160070190805190602001906111a0929190611252565b50838160080190805190602001906111b9929190611252565b50828160040190805190602001906111d29291906112d8565b5060018160090160006101000a81548160ff0219169083151502179055508873ffffffffffffffffffffffffffffffffffffffff166001547f725520a098b8482798bc7dbba42fdafe9a372e065d49b40f4f87da50cf476d258a6040516112399190611de7565b60405180910390a3600154915050979650505050505050565b82805461125e90611c1b565b90600052602060002090601f01602090048101928261128057600085556112c7565b82601f1061129957805160ff19168380011785556112c7565b828001600101855582156112c7579182015b828111156112c65782518255916020019190600101906112ab565b5b5090506112d49190611338565b5090565b828054828255906000526020600020908101928215611327579160200282015b82811115611326578251829080519060200190611316929190611252565b50916020019190600101906112f8565b5b5090506113349190611355565b5090565b5b80821115611351576000816000905550600101611339565b5090565b5b80821115611375576000818161136c9190611379565b50600101611356565b5090565b50805461138590611c1b565b6000825580601f1061139757506113b6565b601f0160209004906000526020600020908101906113b59190611338565b5b50565b6000604051905090565b600080fd5b600080fd5b6000819050919050565b6113e0816113cd565b81146113eb57600080fd5b50565b6000813590506113fd816113d7565b92915050565b600060208284031215611419576114186113c3565b5b6000611427848285016113ee565b91505092915050565b611439816113cd565b82525050565b600073ffffffffffffffffffffffffffffffffffffffff82169050919050565b600061146a8261143f565b9050919050565b61147a8161145f565b82525050565b600081519050919050565b600082825260208201905092915050565b60005b838110156114ba57808201518184015260208101905061149f565b838111156114c9576000848401525b50505050565b6000601f19601f8301169050919050565b60006114eb82611480565b6114f5818561148b565b935061150581856020860161149c565b61150e816114cf565b840191505092915050565b60008115159050919050565b61152e81611519565b82525050565b60006101208201905061154a600083018c611430565b611557602083018b611471565b611564604083018a611471565b818103606083015261157681896114e0565b9050818103608083015261158a81886114e0565b905081810360a083015261159e81876114e0565b905081810360c08301526115b281866114e0565b905081810360e08301526115c681856114e0565b90506115d6610100830184611525565b9a9950505050505050505050565b60006115ef8261143f565b9050919050565b6115ff816115e4565b811461160a57600080fd5b50565b60008135905061161c816115f6565b92915050565b60008060408385031215611639576116386113c3565b5b6000611647858286016113ee565b92505060206116588582860161160d565b9150509250929050565b600081519050919050565b600082825260208201905092915050565b6000819050602082019050919050565b600082825260208201905092915050565b60006116aa82611480565b6116b4818561168e565b93506116c481856020860161149c565b6116cd816114cf565b840191505092915050565b60006116e4838361169f565b905092915050565b6000602082019050919050565b600061170482611662565b61170e818561166d565b9350836020820285016117208561167e565b8060005b8581101561175c578484038952815161173d85826116d8565b9450611748836116ec565b925060208a01995050600181019050611724565b50829750879550505050505092915050565b6000610120820190508181036000830152611789818c6114e0565b9050611798602083018b611471565b6117a5604083018a611471565b81810360608301526117b781896114e0565b905081810360808301526117cb81886116f9565b905081810360a08301526117df81876114e0565b905081810360c08301526117f381866114e0565b905081810360e083015261180781856114e0565b9050611817610100830184611525565b9a9950505050505050505050565b600060208201905061183a6000830184611430565b92915050565b60006020820190506118556000830184611471565b92915050565b6118648161145f565b811461186f57600080fd5b50565b6000813590506118818161185b565b92915050565b600080fd5b600080fd5b7f4e487b7100000000000000000000000000000000000000000000000000000000600052604160045260246000fd5b6118c9826114cf565b810181811067ffffffffffffffff821117156118e8576118e7611891565b5b80604052505050565b60006118fb6113b9565b905061190782826118c0565b919050565b600067ffffffffffffffff82111561192757611926611891565b5b611930826114cf565b9050602081019050919050565b82818337600083830152505050565b600061195f61195a8461190c565b6118f1565b90508281526020810184848401111561197b5761197a61188c565b5b61198684828561193d565b509392505050565b600082601f8301126119a3576119a2611887565b5b81356119b384826020860161194c565b91505092915050565b600067ffffffffffffffff8211156119d7576119d6611891565b5b602082029050602081019050919050565b600080fd5b6000611a006119fb846119bc565b6118f1565b90508083825260208201905060208402830185811115611a2357611a226119e8565b5b835b81811015611a6a57803567ffffffffffffffff811115611a4857611a47611887565b5b808601611a55898261198e565b85526020850194505050602081019050611a25565b5050509392505050565b600082601f830112611a8957611a88611887565b5b8135611a998482602086016119ed565b91505092915050565b600080600080600080600060e0888a031215611ac157611ac06113c3565b5b6000611acf8a828b01611872565b975050602088013567ffffffffffffffff811115611af057611aef6113c8565b5b611afc8a828b0161198e565b965050604088013567ffffffffffffffff811115611b1d57611b1c6113c8565b5b611b298a828b0161198e565b955050606088013567ffffffffffffffff811115611b4a57611b496113c8565b5b611b568a828b0161198e565b945050608088013567ffffffffffffffff811115611b7757611b766113c8565b5b611b838a828b0161198e565b93505060a088013567ffffffffffffffff811115611ba457611ba36113c8565b5b611bb08a828b0161198e565b92505060c088013567ffffffffffffffff811115611bd157611bd06113c8565b5b611bdd8a828b01611a74565b91505092959891949750929550565b7f4e487b7100000000000000000000000000000000000000000000000000000000600052602260045260246000fd5b60006002820490506001821680611c3357607f821691505b602082108103611c4657611c45611bec565b5b50919050565b7f4f6e6c7920746865206f776e65722063616e207472616e73666572207468697360008201527f2049500000000000000000000000000000000000000000000000000000000000602082015250565b6000611ca860238361148b565b9150611cb382611c4c565b604082019050919050565b60006020820190508181036000830152611cd781611c9b565b9050919050565b7f4574686572206d7573742062652073656e7420746f207472616e73666572204960008201527f5020726967687473000000000000000000000000000000000000000000000000602082015250565b6000611d3a60288361148b565b9150611d4582611cde565b604082019050919050565b60006020820190508181036000830152611d6981611d2d565b9050919050565b7f4e487b7100000000000000000000000000000000000000000000000000000000600052601160045260246000fd5b6000611daa826113cd565b91507fffffffffffffffffffffffffffffffffffffffffffffffffffffffffffffffff8203611ddc57611ddb611d70565b5b600182019050919050565b60006020820190508181036000830152611e0181846114e0565b90509291505056fea2646970667358221220b846595be59ae5cc8e480095807df4ef92753e1f8e30c14eaa364996b841215d64736f6c634300080d0033",
  "immutableReferences": {},
  "source": "// SPDX-License-Identifier: MIT\r\npragma solidity ^0.8.13;\r\n\r\ncontract IpManagement {\r\n    struct IP {\r\n        uint id;\r\n        address creator; // Address of the creator\r\n        address owner; // Address of the owner\r\n        string title; // Title of the intellectual property\r\n        string[] keywords; // Array of keywords related to the IP\r\n        string classification; // Classification type (e.g., type of IP)\r\n        string description; // Description of the IP\r\n        string documentUrl; // URL to the document representing the IP\r\n        string status; // Status of the IP (e.g., pending, approved)\r\n        bool visibility; // Visibility flag to determine if the IP is public or private\r\n    }\r\n\r\n    // Mapping to store IP ownerships\r\n    mapping(uint => IP) public ipRecords;\r\n    uint public ipCounter = 0; // Keeps track of the number of IPs registered\r\n\r\n    event IPRegistered(uint indexed ipId, address indexed owner, string title);\r\n\r\n    event IPTransferred(\r\n        uint indexed ipId,\r\n        address indexed from,\r\n        address indexed to\r\n    );\r\n\r\n    // Function to register a new IP with an explicit owner\r\n    function registerIP(\r\n        address _owner, // Explicit owner\r\n        string memory _title,\r\n        string memory _classification,\r\n        string memory _description,\r\n        string memory _documentUrl,\r\n        string memory _status,\r\n        string[] memory _keywords\r\n    ) public returns (uint) {\r\n        ipCounter++; // Increment the IP counter to assign a new ID\r\n\r\n        // Create a new IP entry\r\n        IP storage newIP = ipRecords[ipCounter];\r\n        newIP.id = ipCounter;\r\n        newIP.creator = msg.sender; // Creator is the one who registers the IP\r\n        newIP.owner = _owner; // Assign the specified owner\r\n        newIP.title = _title;\r\n        newIP.classification = _classification;\r\n        newIP.description = _description;\r\n        newIP.documentUrl = _documentUrl;\r\n        newIP.status = _status;\r\n        newIP.keywords = _keywords;\r\n        newIP.visibility = true; // Default to public visibility\r\n\r\n        emit IPRegistered(ipCounter, _owner, _title); // Emit an event for IP registration\r\n        return ipCounter; // Return the IP ID\r\n    }\r\n\r\n    // Function to transfer IP rights\r\n    function transferIP(uint ipId, address payable to) public payable {\r\n        IP storage ip = ipRecords[ipId]; // Get the IP by ID\r\n        require(ip.owner == msg.sender, \"Only the owner can transfer this IP\"); // Ensure the caller is the owner\r\n        require(msg.value > 0, \"Ether must be sent to transfer IP rights\"); // Ensure Ether is sent with the transaction\r\n\r\n        ip.owner = to; // Transfer ownership\r\n        to.transfer(msg.value); // Transfer Ether to the new owner\r\n\r\n        emit IPTransferred(ipId, msg.sender, to); // Emit an event for the transfer\r\n    }\r\n\r\n    // Function to get details of an IP by its ID\r\n    function getIP(\r\n        uint ipId\r\n    )\r\n        public\r\n        view\r\n        returns (\r\n            string memory,\r\n            address,\r\n            address,\r\n            string memory,\r\n            string[] memory,\r\n            string memory,\r\n            string memory,\r\n            string memory,\r\n            bool\r\n        )\r\n    {\r\n        IP memory ip = ipRecords[ipId];\r\n        return (\r\n            ip.title,\r\n            ip.creator,\r\n            ip.owner,\r\n            ip.classification,\r\n            ip.keywords,\r\n            ip.description,\r\n            ip.documentUrl,\r\n            ip.status,\r\n            ip.visibility\r\n        );\r\n    }\r\n\r\n    // Function to retrieve the ownership of an IP by its ID\r\n    function getOwnership(uint ipId) public view returns (address) {\r\n        IP memory ip = ipRecords[ipId];\r\n        return ip.owner;\r\n    }\r\n}\r\n",
  "sourcePath": "D:\\5sae2\\stage ete\\ip-management-blockchain-test\\contracts\\IpManagement.sol",
  "compiler": {
    "name": "solc",
    "version": "0.8.13+commit.abaa5c0e.Emscripten.clang"
  },
  "schemaVersion": "3.4.16",
  "updatedAt": "2024-11-19T18:09:11.723Z",
  "networkType": "ethereum",
  "devdoc": {
    "kind": "dev",
    "methods": {},
    "version": 1
  },
  "userdoc": {
    "kind": "user",
    "methods": {},
    "version": 1
  }
}