{
  "contractName": "IpManagement",
  "abi": [
    {
      "anonymous": false,
      "inputs": [
        {
          "indexed": true,
          "internalType": "uint256",
          "name": "ipId",
          "type": "uint256"
        },
        {
          "indexed": true,
          "internalType": "address",
          "name": "owner",
          "type": "address"
        },
        {
          "indexed": false,
          "internalType": "string",
          "name": "title",
          "type": "string"
        }
      ],
      "name": "IPRegistered",
      "type": "event"
    },
    {
      "anonymous": false,
      "inputs": [
        {
          "indexed": true,
          "internalType": "uint256",
          "name": "ipId",
          "type": "uint256"
        },
        {
          "indexed": true,
          "internalType": "address",
          "name": "from",
          "type": "address"
        },
        {
          "indexed": true,
          "internalType": "address",
          "name": "to",
          "type": "address"
        }
      ],
      "name": "IPTransferred",
      "type": "event"
    },
    {
      "inputs": [],
      "name": "ipCounter",
      "outputs": [
        {
          "internalType": "uint256",
          "name": "",
          "type": "uint256"
        }
      ],
      "stateMutability": "view",
      "type": "function",
      "constant": true
    },
    {
      "inputs": [
        {
          "internalType": "uint256",
          "name": "",
          "type": "uint256"
        }
      ],
      "name": "ipRecords",
      "outputs": [
        {
          "internalType": "uint256",
          "name": "id",
          "type": "uint256"
        },
        {
          "internalType": "address",
          "name": "creator",
          "type": "address"
        },
        {
          "internalType": "address",
          "name": "owner",
          "type": "address"
        },
        {
          "internalType": "string",
          "name": "title",
          "type": "string"
        },
        {
          "internalType": "string",
          "name": "classification",
          "type": "string"
        },
        {
          "internalType": "string",
          "name": "description",
          "type": "string"
        },
        {
          "internalType": "string",
          "name": "documentUrl",
          "type": "string"
        },
        {
          "internalType": "string",
          "name": "status",
          "type": "string"
        },
        {
          "internalType": "bool",
          "name": "visibility",
          "type": "bool"
        }
      ],
      "stateMutability": "view",
      "type": "function",
      "constant": true
    },
    {
      "inputs": [
        {
          "internalType": "address",
          "name": "_owner",
          "type": "address"
        },
        {
          "internalType": "string",
          "name": "_title",
          "type": "string"
        },
        {
          "internalType": "string",
          "name": "_classification",
          "type": "string"
        },
        {
          "internalType": "string",
          "name": "_description",
          "type": "string"
        },
        {
          "internalType": "string",
          "name": "_documentUrl",
          "type": "string"
        },
        {
          "internalType": "string",
          "name": "_status",
          "type": "string"
        },
        {
          "internalType": "string[]",
          "name": "_keywords",
          "type": "string[]"
        }
      ],
      "name": "registerIP",
      "outputs": [
        {
          "internalType": "uint256",
          "name": "",
          "type": "uint256"
        }
      ],
      "stateMutability": "nonpayable",
      "type": "function"
    },
    {
      "inputs": [
        {
          "internalType": "uint256",
          "name": "ipId",
          "type": "uint256"
        },
        {
          "internalType": "address payable",
          "name": "to",
          "type": "address"
        }
      ],
      "name": "transferIP",
      "outputs": [],
      "stateMutability": "payable",
      "type": "function",
      "payable": true
    },
    {
      "inputs": [
        {
          "internalType": "uint256",
          "name": "ipId",
          "type": "uint256"
        }
      ],
      "name": "getIP",
      "outputs": [
        {
          "internalType": "string",
          "name": "",
          "type": "string"
        },
        {
          "internalType": "address",
          "name": "",
          "type": "address"
        },
        {
          "internalType": "address",
          "name": "",
          "type": "address"
        },
        {
          "internalType": "string",
          "name": "",
          "type": "string"
        },
        {
          "internalType": "string[]",
          "name": "",
          "type": "string[]"
        },
        {
          "internalType": "string",
          "name": "",
          "type": "string"
        },
        {
          "internalType": "string",
          "name": "",
          "type": "string"
        },
        {
          "internalType": "string",
          "name": "",
          "type": "string"
        },
        {
          "internalType": "bool",
          "name": "",
          "type": "bool"
        }
      ],
      "stateMutability": "view",
      "type": "function",
      "constant": true
    }
  ],
  "bytecode": "0x6080604052600060015534801561001557600080fd5b50611928806100256000396000f3fe60806040526004361061004a5760003560e01c806302c59bc61461004f5780632d93259814610094578063436aa76c146100b057806352cff879146100f5578063e72c292914610120575b600080fd5b34801561005b57600080fd5b5061007660048036038101906100719190610f07565b61015d565b60405161008b99989796959493929190611038565b60405180910390f35b6100ae60048036038101906100a99190611126565b6104a0565b005b3480156100bc57600080fd5b506100d760048036038101906100d29190610f07565b610675565b6040516100ec99989796959493929190611272565b60405180910390f35b34801561010157600080fd5b5061010a610b78565b6040516101179190611329565b60405180910390f35b34801561012c57600080fd5b506101476004803603810190610142919061158b565b610b7e565b6040516101549190611329565b60405180910390f35b60006020528060005260406000206000915090508060000154908060010160009054906101000a900473ffffffffffffffffffffffffffffffffffffffff16908060020160009054906101000a900473ffffffffffffffffffffffffffffffffffffffff16908060030180546101d290611704565b80601f01602080910402602001604051908101604052809291908181526020018280546101fe90611704565b801561024b5780601f106102205761010080835404028352916020019161024b565b820191906000526020600020905b81548152906001019060200180831161022e57829003601f168201915b50505050509080600501805461026090611704565b80601f016020809104026020016040519081016040528092919081815260200182805461028c90611704565b80156102d95780601f106102ae576101008083540402835291602001916102d9565b820191906000526020600020905b8154815290600101906020018083116102bc57829003601f168201915b5050505050908060060180546102ee90611704565b80601f016020809104026020016040519081016040528092919081815260200182805461031a90611704565b80156103675780601f1061033c57610100808354040283529160200191610367565b820191906000526020600020905b81548152906001019060200180831161034a57829003601f168201915b50505050509080600701805461037c90611704565b80601f01602080910402602001604051908101604052809291908181526020018280546103a890611704565b80156103f55780601f106103ca576101008083540402835291602001916103f5565b820191906000526020600020905b8154815290600101906020018083116103d857829003601f168201915b50505050509080600801805461040a90611704565b80601f016020809104026020016040519081016040528092919081815260200182805461043690611704565b80156104835780601f1061045857610100808354040283529160200191610483565b820191906000526020600020905b81548152906001019060200180831161046657829003601f168201915b5050505050908060090160009054906101000a900460ff16905089565b600080600084815260200190815260200160002090503373ffffffffffffffffffffffffffffffffffffffff168160020160009054906101000a900473ffffffffffffffffffffffffffffffffffffffff1673ffffffffffffffffffffffffffffffffffffffff1614610548576040517f08c379a000000000000000000000000000000000000000000000000000000000815260040161053f906117a7565b60405180910390fd5b6000341161058b576040517f08c379a000000000000000000000000000000000000000000000000000000000815260040161058290611839565b60405180910390fd5b818160020160006101000a81548173ffffffffffffffffffffffffffffffffffffffff021916908373ffffffffffffffffffffffffffffffffffffffff1602179055508173ffffffffffffffffffffffffffffffffffffffff166108fc349081150290604051600060405180830381858888f19350505050158015610614573d6000803e3d6000fd5b508173ffffffffffffffffffffffffffffffffffffffff163373ffffffffffffffffffffffffffffffffffffffff16847f1757856899d0b1fbb2e309cb05cda166887b13df401307904c3042b4b759dc3960405160405180910390a4505050565b606060008060608060608060606000806000808c815260200190815260200160002060405180610140016040529081600082015481526020016001820160009054906101000a900473ffffffffffffffffffffffffffffffffffffffff1673ffffffffffffffffffffffffffffffffffffffff1673ffffffffffffffffffffffffffffffffffffffff1681526020016002820160009054906101000a900473ffffffffffffffffffffffffffffffffffffffff1673ffffffffffffffffffffffffffffffffffffffff1673ffffffffffffffffffffffffffffffffffffffff16815260200160038201805461076990611704565b80601f016020809104026020016040519081016040528092919081815260200182805461079590611704565b80156107e25780601f106107b7576101008083540402835291602001916107e2565b820191906000526020600020905b8154815290600101906020018083116107c557829003601f168201915b5050505050815260200160048201805480602002602001604051908101604052809291908181526020016000905b828210156108bc57838290600052602060002001805461082f90611704565b80601f016020809104026020016040519081016040528092919081815260200182805461085b90611704565b80156108a85780601f1061087d576101008083540402835291602001916108a8565b820191906000526020600020905b81548152906001019060200180831161088b57829003601f168201915b505050505081526020019060010190610810565b5050505081526020016005820180546108d490611704565b80601f016020809104026020016040519081016040528092919081815260200182805461090090611704565b801561094d5780601f106109225761010080835404028352916020019161094d565b820191906000526020600020905b81548152906001019060200180831161093057829003601f168201915b5050505050815260200160068201805461096690611704565b80601f016020809104026020016040519081016040528092919081815260200182805461099290611704565b80156109df5780601f106109b4576101008083540402835291602001916109df565b820191906000526020600020905b8154815290600101906020018083116109c257829003601f168201915b505050505081526020016007820180546109f890611704565b80601f0160208091040260200160405190810160405280929190818152602001828054610a2490611704565b8015610a715780601f10610a4657610100808354040283529160200191610a71565b820191906000526020600020905b815481529060010190602001808311610a5457829003601f168201915b50505050508152602001600882018054610a8a90611704565b80601f0160208091040260200160405190810160405280929190818152602001828054610ab690611704565b8015610b035780601f10610ad857610100808354040283529160200191610b03565b820191906000526020600020905b815481529060010190602001808311610ae657829003601f168201915b505050505081526020016009820160009054906101000a900460ff16151515158152505090508060600151816020015182604001518360a0015184608001518560c001518660e00151876101000151886101200151995099509950995099509950995099509950509193959799909294969850565b60015481565b600060016000815480929190610b9390611888565b91905055506000806000600154815260200190815260200160002090506001548160000181905550338160010160006101000a81548173ffffffffffffffffffffffffffffffffffffffff021916908373ffffffffffffffffffffffffffffffffffffffff160217905550888160020160006101000a81548173ffffffffffffffffffffffffffffffffffffffff021916908373ffffffffffffffffffffffffffffffffffffffff16021790555087816003019080519060200190610c59929190610d56565b5086816005019080519060200190610c72929190610d56565b5085816006019080519060200190610c8b929190610d56565b5084816007019080519060200190610ca4929190610d56565b5083816008019080519060200190610cbd929190610d56565b5082816004019080519060200190610cd6929190610ddc565b5060018160090160006101000a81548160ff0219169083151502179055508873ffffffffffffffffffffffffffffffffffffffff166001547f725520a098b8482798bc7dbba42fdafe9a372e065d49b40f4f87da50cf476d258a604051610d3d91906118d0565b60405180910390a3600154915050979650505050505050565b828054610d6290611704565b90600052602060002090601f016020900481019282610d845760008555610dcb565b82601f10610d9d57805160ff1916838001178555610dcb565b82800160010185558215610dcb579182015b82811115610dca578251825591602001919060010190610daf565b5b509050610dd89190610e3c565b5090565b828054828255906000526020600020908101928215610e2b579160200282015b82811115610e2a578251829080519060200190610e1a929190610d56565b5091602001919060010190610dfc565b5b509050610e389190610e59565b5090565b5b80821115610e55576000816000905550600101610e3d565b5090565b5b80821115610e795760008181610e709190610e7d565b50600101610e5a565b5090565b508054610e8990611704565b6000825580601f10610e9b5750610eba565b601f016020900490600052602060002090810190610eb99190610e3c565b5b50565b6000604051905090565b600080fd5b600080fd5b6000819050919050565b610ee481610ed1565b8114610eef57600080fd5b50565b600081359050610f0181610edb565b92915050565b600060208284031215610f1d57610f1c610ec7565b5b6000610f2b84828501610ef2565b91505092915050565b610f3d81610ed1565b82525050565b600073ffffffffffffffffffffffffffffffffffffffff82169050919050565b6000610f6e82610f43565b9050919050565b610f7e81610f63565b82525050565b600081519050919050565b600082825260208201905092915050565b60005b83811015610fbe578082015181840152602081019050610fa3565b83811115610fcd576000848401525b50505050565b6000601f19601f8301169050919050565b6000610fef82610f84565b610ff98185610f8f565b9350611009818560208601610fa0565b61101281610fd3565b840191505092915050565b60008115159050919050565b6110328161101d565b82525050565b60006101208201905061104e600083018c610f34565b61105b602083018b610f75565b611068604083018a610f75565b818103606083015261107a8189610fe4565b9050818103608083015261108e8188610fe4565b905081810360a08301526110a28187610fe4565b905081810360c08301526110b68186610fe4565b905081810360e08301526110ca8185610fe4565b90506110da610100830184611029565b9a9950505050505050505050565b60006110f382610f43565b9050919050565b611103816110e8565b811461110e57600080fd5b50565b600081359050611120816110fa565b92915050565b6000806040838503121561113d5761113c610ec7565b5b600061114b85828601610ef2565b925050602061115c85828601611111565b9150509250929050565b600081519050919050565b600082825260208201905092915050565b6000819050602082019050919050565b600082825260208201905092915050565b60006111ae82610f84565b6111b88185611192565b93506111c8818560208601610fa0565b6111d181610fd3565b840191505092915050565b60006111e883836111a3565b905092915050565b6000602082019050919050565b600061120882611166565b6112128185611171565b93508360208202850161122485611182565b8060005b85811015611260578484038952815161124185826111dc565b945061124c836111f0565b925060208a01995050600181019050611228565b50829750879550505050505092915050565b600061012082019050818103600083015261128d818c610fe4565b905061129c602083018b610f75565b6112a9604083018a610f75565b81810360608301526112bb8189610fe4565b905081810360808301526112cf81886111fd565b905081810360a08301526112e38187610fe4565b905081810360c08301526112f78186610fe4565b905081810360e083015261130b8185610fe4565b905061131b610100830184611029565b9a9950505050505050505050565b600060208201905061133e6000830184610f34565b92915050565b61134d81610f63565b811461135857600080fd5b50565b60008135905061136a81611344565b92915050565b600080fd5b600080fd5b7f4e487b7100000000000000000000000000000000000000000000000000000000600052604160045260246000fd5b6113b282610fd3565b810181811067ffffffffffffffff821117156113d1576113d061137a565b5b80604052505050565b60006113e4610ebd565b90506113f082826113a9565b919050565b600067ffffffffffffffff8211156114105761140f61137a565b5b61141982610fd3565b9050602081019050919050565b82818337600083830152505050565b6000611448611443846113f5565b6113da565b90508281526020810184848401111561146457611463611375565b5b61146f848285611426565b509392505050565b600082601f83011261148c5761148b611370565b5b813561149c848260208601611435565b91505092915050565b600067ffffffffffffffff8211156114c0576114bf61137a565b5b602082029050602081019050919050565b600080fd5b60006114e96114e4846114a5565b6113da565b9050808382526020820190506020840283018581111561150c5761150b6114d1565b5b835b8181101561155357803567ffffffffffffffff81111561153157611530611370565b5b80860161153e8982611477565b8552602085019450505060208101905061150e565b5050509392505050565b600082601f83011261157257611571611370565b5b81356115828482602086016114d6565b91505092915050565b600080600080600080600060e0888a0312156115aa576115a9610ec7565b5b60006115b88a828b0161135b565b975050602088013567ffffffffffffffff8111156115d9576115d8610ecc565b5b6115e58a828b01611477565b965050604088013567ffffffffffffffff81111561160657611605610ecc565b5b6116128a828b01611477565b955050606088013567ffffffffffffffff81111561163357611632610ecc565b5b61163f8a828b01611477565b945050608088013567ffffffffffffffff8111156116605761165f610ecc565b5b61166c8a828b01611477565b93505060a088013567ffffffffffffffff81111561168d5761168c610ecc565b5b6116998a828b01611477565b92505060c088013567ffffffffffffffff8111156116ba576116b9610ecc565b5b6116c68a828b0161155d565b91505092959891949750929550565b7f4e487b7100000000000000000000000000000000000000000000000000000000600052602260045260246000fd5b6000600282049050600182168061171c57607f821691505b60208210810361172f5761172e6116d5565b5b50919050565b7f4f6e6c7920746865206f776e65722063616e207472616e73666572207468697360008201527f2049500000000000000000000000000000000000000000000000000000000000602082015250565b6000611791602383610f8f565b915061179c82611735565b604082019050919050565b600060208201905081810360008301526117c081611784565b9050919050565b7f4574686572206d7573742062652073656e7420746f207472616e73666572204960008201527f5020726967687473000000000000000000000000000000000000000000000000602082015250565b6000611823602883610f8f565b915061182e826117c7565b604082019050919050565b6000602082019050818103600083015261185281611816565b9050919050565b7f4e487b7100000000000000000000000000000000000000000000000000000000600052601160045260246000fd5b600061189382610ed1565b91507fffffffffffffffffffffffffffffffffffffffffffffffffffffffffffffffff82036118c5576118c4611859565b5b600182019050919050565b600060208201905081810360008301526118ea8184610fe4565b90509291505056fea26469706673582212204b156d5ea3159b75bca9a5445520e40b796c5918d42027ff013066e94957bc9664736f6c634300080d0033",
  "immutableReferences": {},
  "source": "// SPDX-License-Identifier: MIT\npragma solidity ^0.8.13;\n\ncontract IpManagement {\n    struct IP {\n        uint id;\n        address creator; // Address of the creator\n        address owner; // Address of the owner\n        string title; // Title of the intellectual property\n        string[] keywords; // Array of keywords related to the IP\n        string classification; // Classification type (e.g., type of IP)\n        string description; // Description of the IP\n        string documentUrl; // URL to the document representing the IP\n        string status; // Status of the IP (e.g., pending, approved)\n        bool visibility; // Visibility flag to determine if the IP is public or private\n    }\n\n    // Mapping to store IP ownerships\n    mapping(uint => IP) public ipRecords;\n    uint public ipCounter = 0; // Keeps track of the number of IPs registered\n\n    event IPRegistered(uint indexed ipId, address indexed owner, string title);\n    event IPTransferred(\n        uint indexed ipId,\n        address indexed from,\n        address indexed to\n    );\n\n    // Function to register a new IP with an explicit owner\n    function registerIP(\n        address _owner, // Explicit owner\n        string memory _title,\n        string memory _classification,\n        string memory _description,\n        string memory _documentUrl,\n        string memory _status,\n        string[] memory _keywords\n    ) public returns (uint) {\n        ipCounter++; // Increment the IP counter to assign a new ID\n\n        // Create a new IP entry\n        IP storage newIP = ipRecords[ipCounter];\n        newIP.id = ipCounter;\n        newIP.creator = msg.sender; // Creator is the one who registers the IP\n        newIP.owner = _owner; // Assign the specified owner\n        newIP.title = _title;\n        newIP.classification = _classification;\n        newIP.description = _description;\n        newIP.documentUrl = _documentUrl;\n        newIP.status = _status;\n        newIP.keywords = _keywords;\n        newIP.visibility = true; // Default to public visibility\n\n        emit IPRegistered(ipCounter, _owner, _title); // Emit an event for IP registration\n        return ipCounter; // Return the IP ID\n    }\n\n    // Function to transfer IP rights\n    function transferIP(uint ipId, address payable to) public payable {\n        IP storage ip = ipRecords[ipId]; // Get the IP by ID\n        require(ip.owner == msg.sender, \"Only the owner can transfer this IP\"); // Ensure the caller is the owner\n        require(msg.value > 0, \"Ether must be sent to transfer IP rights\"); // Ensure Ether is sent with the transaction\n\n        ip.owner = to; // Transfer ownership\n        to.transfer(msg.value); // Transfer Ether to the new owner\n\n        emit IPTransferred(ipId, msg.sender, to); // Emit an event for the transfer\n    }\n\n    // Function to get details of an IP by its ID\n    function getIP(\n        uint ipId\n    )\n        public\n        view\n        returns (\n            string memory,\n            address,\n            address,\n            string memory,\n            string[] memory,\n            string memory,\n            string memory,\n            string memory,\n            bool\n        )\n    {\n        IP memory ip = ipRecords[ipId];\n        return (\n            ip.title,\n            ip.creator,\n            ip.owner,\n            ip.classification,\n            ip.keywords,\n            ip.description,\n            ip.documentUrl,\n            ip.status,\n            ip.visibility\n        );\n    }\n}\n",
  "sourcePath": "C:\\Users\\nermine\\Desktop\\summer internship\\backend-ip\\contracts\\IpManagement.sol",
  "compiler": {
    "name": "solc",
    "version": "0.8.13+commit.abaa5c0e.Emscripten.clang"
  },
  "schemaVersion": "3.4.16",
  "updatedAt": "2024-10-24T20:35:22.540Z",
  "networkType": "ethereum",
  "devdoc": {
    "kind": "dev",
    "methods": {},
    "version": 1
  },
  "userdoc": {
    "kind": "user",
    "methods": {},
    "version": 1
  }
}